:0200000470107A
:1004000000002034E13B1070053B1070073B10707A
:10041000093B10700B3B10700D3B10700F3B1070C0
:10042000000000000000000000000000113B107000
:10043000133B10700000000045081070E9071070B1
:100440003D3C1070000000003D3C10703D3C1070C1
:100450003D3C10703D3C10703D3C10703D3C1070B8
:100460003D3C1070000000003D3C10703D3C1070A1
:100470003D3C10703D3C10703D3C10700000000091
:100480003D3C1070000000003D3C10703D3C107081
:100490003D3C10703D3C10703D3C10703D3C107078
:1004A0003D3C10703D3C10703D3C10703D3C107068
:1004B0003D3C10703D3C10703D3C10703D3C107058
:1004C0003D3C10703D3C10703D3C10703D3C107048
:1004D00000000000000000003D3C10703D3C10702A
:1004E0003D3C107000000000000000000000000013
:1004F00000000000000000003D3C1070233B107025
:10050000153B10700000000000000000000000001B
:100510003D3C1070A1C910703D3C10703D3C107006
:100520003D3C10703D3C10703D3C10703D3C1070E7
:100530003D3C10703D3C10703D3C10703D3C1070D7
:100540003D3C10703D3C10703D3C10703D3C1070C7
:100550003D3C10703D3C10703D3C10703D3C1070B7
:10074000000000003D3C10703D3C107000000000B7
:1007500010B5054C237833B9044B13B10448AFF3FB
:1007600000800123237010BDE0020034000000006F
:10077000A467117008B5034B1BB103490348AFF3DD
:10078000008008BD00000000E4020034A46711707E
:1007900072B64FF0E0201B49C0F8081D1A480168E6
:1007A00041F00101016019481649096801604FF0E4
:1007B000E020174941614FF0070101614FF000014E
:1007C000C0F8181D4FF07F41C0F81C1D1149C0F83A
:1007D000201D7047FFF7FEBF01B510F06BFB10F056
:1007E000C7FBBDE80140704701B510F063FB00F0A6
:1007F000A3F810F0BDFBBDE801407047FFF7FEBF56
:10080000FFF7FEBF00041070001000E0F09F0034FE
:10081000FF340C000000FF404FF00000324A10602F
:10082000EFF3148020F0040080F3148862B64FF0D8
:1008300080504FF0E021C1F8040DBFF34F8FBFF39C
:100840006F8FFEE772B601B510F0F0FABDE8014017
:1008500062B62648264A4FF00003016891B1036052
:10086000EFF3098C2CE9F00F1EF0100F01D12CEDE5
:10087000108A204C4CF804EDC1F808C025680DB171
:100880008D61236072B61168F1B1016062B64F6884
:10089000184C8D6907F101074F60256003B410F013
:1008A0009BFA03BCD1F80CC08CF30B88D1F808C0BC
:1008B0005CF804EB1EF0100F01D1BCEC108ABCE810
:1008C000F00F8CF30988704772B61168016009B99E
:1008D00062B6F9E74FF000674FF0E028C8F8047DF2
:1008E00062B6D4E770470000509F0034EC9F00349C
:1008F000E89F0034F49F0034026922F00702A2F15D
:1009000044026FF0020313604FF0000353609360E2
:10091000D360136153619361D36113625362936235
:10092000D362136353634FF0FF339363D1634FF08C
:1009300080731364826070472249086800F10100E7
:100940000860214B1A683AB1A2F101021A601AB983
:100950001E4B4FF0010018601D490868026822B163
:100960001C4B4FF001021A6008E000F104001A4B22
:100970001A68904201D1194B18680860134B1A6825
:1009800012B914490868C8B101B51249086808B11C
:100990000FF0BEFE0D4B1A6872B10FF061FE1048E9
:1009A000016849B90F4801680F4A13680F484FF0B2
:1009B0008052994200D00260BDE80140BFF34F8FE2
:1009C0007047000068A50034F49F003464A500342B
:1009D000D8A40034D4A40034DCA40034E0A400344F
:1009E000509F0034EC9F0034E89F003404ED00E099
:1009F00090EDAD6A30B52DED108B90EDA87BB5EE86
:100A0000C06A87B08DED027B002390EDA47BF1EEF0
:100A100010FA91ED015A91ED004A91ED02FB91ED32
:100A200004EB044690ED123B90EDAACB90ED16AB93
:100A30008DED047B90EDA6BB80F8603009DCD0F82A
:100A4000C832D14898474FF0FF3007B0BDEC108B4B
:100A500030BDB8EE455B9FEDBE7BB8EE444B25EE56
:100A6000077BB4EEC47BF1EE10FA0FDD90ED1C7B3A
:100A70009FEDB92B37EE022B9FEDB97BB4EEC72B60
:100A8000F1EE10FA37FE027B80ED1C7B9FEDB67B0A
:100A900025EE075BB4EEC45BF1EE10FA10D594EDD1
:100AA0001C7B9FEDAD5B37EE457B9FEDB15BB4EEFC
:100AB000C57BF1EE10FA58BFB0EE475B84ED1C5BCE
:100AC00083EE0C8BBCEEC88BB8EE488B94F850507C
:100AD00028EE0C8B012DB7EEC66A40F0AC809FED7E
:100AE000A67B3FEE4E5B85EE07DB3FEE0E5B85EEB1
:100AF000079BB0EECD7BB4EEC76BF1EE10FAB0EE13
:100B0000C95B1FDBB4EEC56BF1EE10FA1ADB0023F4
:100B100084F8783094ED1A7BB5EEC07BF1EE10FAD4
:100B200040F33481012384F860309DED027BB4EE04
:100B3000C7ABF1EE10FA40F13C819DED047B3AEE3B
:100B400007BB28E1B4EEC56BF1EE10FA0CD589EEC7
:100B50000D5B94EDAE6AB0EEC55BB7EEC66AB4EE5F
:100B6000C65BF1EE10FAD5DAF7EECA0BB7EEC70B9B
:100B700015F0FAFBB2EE047BB7EEC00A20EE070BCD
:100B8000FCEEC87BB0EECE6BCDED017AB0EECF7B44
:100B9000B4EEC67BF1EE10FA62DCB5EEC0EBF1EE1E
:100BA00010FA62D538EE000B94ED3C7BB4EEC07BBE
:100BB000F1EE10FA03D5B0EE4BABB0EE470B94ED6F
:100BC0003A7BB4EEC07BF1EE10FA03DDB0EE4BAB36
:100BD000B0EE470B80EE0C8BBCEEC88BB8EE488BAA
:100BE000012D2CEE088B16D1B4F8E030022B3FD843
:100BF000DDED017AB8EE677B04EBC30282ED207B6A
:100C000082ED268B04EB0312013382ED2CDB82EDA7
:100C10002E9BA4F8E03094F87830012B07D0FCEE3E
:100C2000C87B17EE903A019A93423FF473AF0123C9
:100C300084F860306EE7B0EECF7BB0EECE5BB4EE02
:100C4000475BF1EE10FA35FE077BB4EEC67BF1EEA2
:100C500010FA7FF65FAF9FED4A9BB0EE49DB83E76A
:100C6000B5EEC0FBF1EE10FA9CD538EE400B9BE7D9
:100C700094ED2A7B94EDAF6A38EE477BB7EEC66AF7
:100C8000B0EEC77BB4EEC67BF1EE10FA56DB94ED06
:100C9000287B38EE477BB0EEC77BB4EEC76BF1EE36
:100CA00010FA4BDD94ED320B94ED307B39EE400BB6
:100CB0003DEE477B20EE000BA7EE070B14F0ACFED9
:100CC00094EDB07AB7EEC77AB4EEC70BF1EE10FA36
:100CD00034D5DDED017AB8EE678B84F8785094F85E
:100CE0007830002B97D1102204F1880104F18000A4
:100CF00012F096FD102204F1A00104F1980012F008
:100D00008FFDD4E93023DDED017AB8EE677BC4E9CD
:100D10002C23D4E9322384ED247BC4E92E23D4E9A7
:100D2000342384ED2A8BC4E93023D4E9362384EDBF
:100D300034DB84ED369BC4E932236CE794F87830D9
:100D4000012B04BF002384F87830C8E7AFF300809C
:100D50009A9999999999A93F7B14AE47E17A843F72
:100D6000343333333333C33F333333333333C33F1A
:100D7000111111111111B13FCD3B7F669EA0F63FBD
:100D800000000000000000005980117094F86030ED
:100D9000002B7FF4CAAE88EE0C7BBCEEC77BB8EEAE
:100DA000477B27EE0C7B84ED16BB84ED127B012084
:100DB0004BE69DED02BBEEE790ED1A6BB5EEC06B16
:100DC00090ED124BF1EE10FA90EDAA5BB0EE467B7F
:100DD000DFBF84EE057BBCEEC77BB8EE477B27EE1A
:100DE000057BB7EEC77B90ED3C5BB7EEC74AB4EE30
:100DF000C54BF1EE10FAC8BFB7EEC57B90ED3A5B7C
:100E0000B7EEC74AB4EEC54BF1EE10FA48BFB7EEE5
:100E1000C57BB7EEC75AD0F8743230B580ED125B9F
:100E200093ED005AD0EDAC7AB4EEC75AF1EE675AA2
:100E3000F1EE10FA4FF00001B0F8F83075FEA77A25
:100E4000013B8AB2934205D8442202FB030303F517
:100E5000907311E000EB8204D4ED445A77EEA55A6A
:100E6000F4EEC75AF1EE10FA01F10101E9DB442377
:100E700003FB020202F59073B5EEC06BF1EE10FABF
:100E8000C0F8743205DC93ED007AB7EEC77A80EDD6
:100E9000127B5A6803F1380142609A6803F1240416
:100EA0008260DA68C2601A69026100F138025D6925
:100EB0000C334561DD680C30C5601D69A3420561D6
:100EC00051F8045B42F8045BF1D1012030BD10B54C
:100ED000044690B070B10023084C40212370C4F840
:100EE000C802074B6846074A12F050FB6846D4F820
:100EF000C8329847204610B010BD00BF0003003430
:100F000098D5127099801170002814BF01204FF0FD
:100F1000FF30704780ED000A30B50C6844604C68C3
:100F200084608C68C460C96802F12404016100F126
:100F3000380115680C32456152F8085C0C30C56008
:100F400052F8045CA242056153F8045B41F8045B6B
:100F5000EFD130BD2DE9F04F2DED068B0E46B0EEF2
:100F6000409BB0EE418B1D460446C7B0002800F000
:100F70008F819FEDCBAB80ED12AB0020CE494FF0BF
:100F80000008C4E91601C4E9A601C4E9AA01CB49D5
:100F9000DFF85C93C4F8B0124FF07E51C4F8B4127D
:100FA0004FF07C51C4E91A890FF2FC29D9E9008974
:100FB000C4E91C89C4E9A4894FF00008C4F8B81238
:100FC000BF49DFF83093C4F8BC124FF07F510023C3
:100FD000C4E9A88901274FF00008C4F8C012711EA7
:100FE000DFF8149388B20428C4E9A0890FF2C0295D
:100FF000D9E9008984F86030C4E9A289A4F8E03016
:1010000084F87830A4F8787214D905234FF48071ED
:10101000AC4A06A812F0BAFAD4F8C83206A8984723
:1010200084F85070204647B0BDEC068BBDE8F04F09
:10103000FFF7C2BE95ED007AB7EEC77AB4EEC70BE4
:10104000F1EE10FA12DDD4F8C8329F48984795EDBA
:10105000007AB7EEC77A8DED009B8DED027B9B4A3F
:101060004FF4807106A812F091FAD5E74FF0440CC6
:101070000CFB065818ED117AB7EEC77AB4EEC71B11
:10108000F1EE10FA41D5D4F8C8329148984798ED5E
:10109000007AB7EEC77A8DED008B8DED027B8D4A1D
:1010A000DEE70CFB08F705EB070944372F4499ED01
:1010B000007AD7ED007AB4EEE77AF1EE10FA08F193
:1010C000010A00F1010021DBD4F8C83282489847B8
:1010D00097ED007AB7EEC77A8DED047BCDF808A0C6
:1010E00099ED007AB7EEC77A43468DED007B7B4AD7
:1010F0004FF4807106A812F049FAD4F8C83206A855
:101100009847012384F850308CE718461FFA80F87E
:101110004145C6D800234FF0440CB01E9FB2B942DF
:1011200039D884ED3A9B84ED3C8B0020A4F8F8601C
:1011300083B2994200F1010000F28B800027B8468B
:1011400004F1FC0A04F5907905EB070B09EB0700A5
:101150004422594612F015FEDBF8003008F1010870
:101160004AF8043B1FFA88F39E4207F14407EBD884
:10117000731E9BB2002E03F1010314BF1A46012215
:10118000C4F8749204F5B271013A6AD1012384F86B
:101190005030237046E702EB8709B842D9ED007A58
:1011A0004FEA870807F1010A1ED908F104089044A4
:1011B00098ED007AB4EEE77AF1EE10FA14D8D4F88C
:1011C000C8324748984798ED007AB7EEC77A8DED58
:1011D000047BCDF808A099ED007AB7EEC77A3B46BC
:1011E0008DED007B3F4A83E70CFB07F805EB080A0F
:1011F0009AED007AB4EEE77AF1EE10FA08F14408BD
:10120000A84408DA98ED007AB4EEE77AF1EE10FA25
:1012100003F1010382D8D4F8C8323348984798EDD7
:10122000007AB7EEC77A8DED047B9AED007AB7EEBF
:10123000C77A8DED027B99ED007AB7EEC77A3B460F
:101240008DED007B4FF48071284A06A812F09EF9BC
:1012500053E702EB83073F6804EB8303C3F8107185
:1012600066E7D4F8743291ED006A93ED007AB7EE38
:10127000C66AB7EEC77A36EE4A6B37EE4A7BB4EEF3
:10128000C76BF1EE10FA48BFC4F8741244317BE723
:101290004FF0FF3047B0BDEC068BBDE8F08F00BFCC
:1012A000000000000088B3409A9999999999B93F34
:1012B0000000000000A06E400000F03F0000484227
:1012C00000002F43A9801170ED801170748111709E
:1012D000D28111705A821170B78211701B83117004
:1012E00073831170E28311704C841170A3841170A8
:1012F0000000F0BF000008400000244030B5054663
:1013000014468DB052B9D0F8C8321D489847D5F868
:10131000C8321C48984720460DB030BD93ED042BD1
:1013200093ED021B93ED000B0AAA08A906A800F092
:101330002FF8DDE90823CDE90223DDE90A23CDE911
:101340000423012398420446CDE90033DFD16946E6
:101350002846FFF74DFB0128044603D0D5F8C832D4
:101360000948D7E795F86030012BD4D12846FFF71C
:1013700023FD01280446CED0D5F8C8320348C9E77A
:10138000298511708A851170B3851170E7851170F8
:10139000B5EEC00BF1EE10FA1FB509D4B5EEC01BC7
:1013A000F1EE10FA04D4B5EEC02BF1EE10FA0DD523
:1013B0008DED022B8DED001B53EC102B444811F0EA
:1013C000C1FF4FF0FF3005B05DF804FB9FED327BAD
:1013D000B4EEC70BF1EE10FA09DCB4EEC71BF1EE68
:1013E00010FA04DCB4EEC72BF1EE10FA07DD8DED38
:1013F000022B8DED001B53EC102B3648DFE728B194
:1014000089B1B2B93449354B084607E071B1334967
:101410003148002A304A314B18BF13460246304843
:1014200011F090FFCDE72C492C48F2E72B490846F4
:10143000EFE79FED1B7B9FED1C6B21EE077BB3EE6F
:10144000005BA0EE067B9FED1A6BA2EE057BA7EE7C
:10145000065B9FED197B80ED005B27EE417BBBEEC9
:101460000A5BA0EE057B9FED165BA2EE057B27EEE7
:10147000067B81ED007B9FED147B27EE411BB2EED6
:10148000047BA0EE051BA2EE471B21EE061B0120EC
:1014900082ED001B97E700BF0000000000E06F40F6
:1014A0000000000000A063400000000000804740F2
:1014B000000000000000703F000000000080554068
:1014C0000000000000005C40000000000080594067
:1014D0001C8611705A861170356D1170336D117044
:1014E0009A8611700000000010B5044690B060B1FB
:1014F0000023074C40212370A065064B6846064A2E
:1015000012F044F86846A36D9847204610B010BD0D
:10151000D00500349ED51270E4861170002814BFE7
:1015200001204FF0FF30704738220A23C0E904231E
:1015300064232D227821C0E9063240F2DC5230B516
:10154000C0E9081241F2707442F6E062C0E90A4252
:101550000BA5D5E9004505224FF0000C026548F2C5
:10156000E802C0E910C20122C0E90C4506A5D5E990
:101570000045C0E91223C0E90E4530BDAFF300803D
:1015800000000040E17A943F000000E04D62703FAF
:1015900010B5044620B1FFF7C7FF0120207010BD31
:1015A0004FF0FF30FBE72DE9F0410E4604460028DE
:1015B00000F0E180017801290BD102210170A56CB6
:1015C000C4E90126B54208D2616C914205D9A560F3
:1015D0004CE00229F3D0002049E0D4F810C0B6EE68
:1015E000005B07EE90CAB8EE676A07EE903AB8EE75
:1015F000E77BB7EEC66A37EE057B86EE070B216DFB
:10160000B7EEC00B8B424BD2F0EE007AB4EEE70A95
:10161000F1EE10FA44D4616CB7EE007A8A4220D21F
:10162000012A134638BF012307EE903AF8EEE77A15
:1016300067EE807AFDEEE77A17EE903A8B42C1BFF3
:1016400007EE901AB8EEE76A07EE902AF8EE676A9E
:10165000C3BFC6EE267A0B4680EE270AB0EE470AD5
:101660006360B4EEC70AF1EE10FA02DC0120BDE8B7
:10167000F081B7EEC00A14F09BF9B3EE047B20EEC4
:10168000070B9FED3F7B20EE070BBDEEC00B10EE6E
:10169000103AE26C33449342D4BFA360A260E5E702
:1016A000ACEB0307E16987EAE770A0EBE7708842DB
:1016B00047D8606AD4F814E0A1690EEB0C0898458D
:1016C00007FB01F143D207EE900A9FED2F7AF8EE67
:1016D000E77A67EE877A07EE101AF1EE676AB8EEDE
:1016E000C77AB4EEE67AF1EE10FA04D5FDEEE77AA9
:1016F00017EE903A59420029B8D0B54232D1606C09
:10170000904201D800292DDA02FB077707EE902AD4
:1017100006EE907A0029B8EEE77BB8EEE66B1EDAAB
:1017200094ED0E5BA5EE067BBDEEC77B17EE102A8F
:10173000236C9A42B8BF1A468242D4BF626060608E
:1017400094E7216A88422CBFE06AA06AB2E7ACEB5A
:101750000E0C9C458ADD8142A8BF0146CBE794ED83
:101760000C5BDFE70E44B5423FF731AFE56CB542A5
:10177000A8BF35462BE74FF0FF3078E7AFF3008086
:101780000000000000408F409A99593F034613F82B
:10179000012B002AFBD1181A0138704781F0004153
:1017A00002E000BF83F0004330B54FEA41044FEA46
:1017B000430594EA050F08BF90EA020F1FBF54EAE1
:1017C000000C55EA020C7FEA645C7FEA655C00F07D
:1017D000E2804FEA5454D4EB5555B8BF6D420CDD4E
:1017E0002C4480EA020281EA030382EA000083EAD1
:1017F000010180EA020281EA0303362D88BF30BD71
:1018000011F0004F4FEA01314FF4801C4CEA1131C6
:1018100002D0404261EB410113F0004F4FEA033325
:101820004CEA133302D0524263EB430394EA050FB0
:1018300000F0A780A4F10104D5F1200E0DDB02FA1F
:101840000EFC22FA05F2801841F1000103FA0EF2B3
:10185000801843FA05F359410EE0A5F120050EF179
:10186000200E012A03FA0EFC28BF4CF0020C43FAAA
:1018700005F3C01851EBE37101F0004507D54FF0B7
:10188000000EDCF1000C7EEB00006EEB0101B1F507
:10189000801F1BD3B1F5001F0CD349085FEA30004D
:1018A0004FEA3C0C04F101044FEA445212F5800F58
:1018B00080F09A80BCF1004F08BF5FEA500C50F1F5
:1018C000000041EB045141EA050130BD5FEA4C0CD8
:1018D000404141EB0101013C28BFB1F5801FE9D235
:1018E00091F0000F04BF01460020B1FA81F308BF58
:1018F0002033A3F10B03B3F120020CDA0C3208DD24
:1019000002F1140CC2F10C0201FA0CF021FA02F1FE
:101910000CE002F11402D8BFC2F1200C01FA02F16E
:1019200020FA0CFCDCBF41EA0C019040E41AA2BF93
:1019300001EB0451294330BD6FEA04041F3C1CDA5B
:101940000C340EDC04F11404C4F1200220FA04F07B
:1019500001FA02F340EA030021FA04F345EA030125
:1019600030BDC4F10C04C4F1200220FA02F001FAE7
:1019700004F340EA0300294630BD21FA04F0294669
:1019800030BD94F0000F83F4801306BF81F4801102
:101990000134013D4EE77FEA645C18BF7FEA655C75
:1019A00029D094EA050F08BF90EA020F05D054EA47
:1019B000000C04BF1946104630BD91EA030F1EBF4C
:1019C0000021002030BD5FEA545C05D14000494150
:1019D00028BF41F0004130BD14F580043CBF01F543
:1019E000801130BD01F0004545F0FE4141F4700129
:1019F0004FF0000030BD7FEA645C1ABF1946104604
:101A00007FEA655C1CBF0B46024650EA013406BF04
:101A100052EA033591EA030F41F4002130BD00BFC3
:101A200090F0000F04BF0021704730B54FF4806480
:101A300004F132044FF000054FF0000150E700BF01
:101A400090F0000F04BF0021704730B54FF4806460
:101A500004F1320410F0004548BF40424FF000014D
:101A60003EE700BF42004FEAE2014FEA31014FEA90
:101A700002701FBF12F07F4393F07F4F81F06051DF
:101A8000704732F07F4208BF704793F07F4F04BF2A
:101A900041F40021704730B54FF4607401F0004507
:101AA00021F000411CE700BF50EA010208BF704767
:101AB00030B54FF000050AE050EA010208BF704758
:101AC00030B511F0004502D5404261EB41014FF4C1
:101AD000806404F132045FEA915C3FF4D8AE4FF0C9
:101AE00003025FEADC0C18BF03325FEADC0C18BFAC
:101AF000033202EBDC02C2F1200300FA03FC20FAFD
:101B000002F001FA03FE40EA0E0021FA02F1144449
:101B1000BDE600BF7BB972B90029BEBF00204FF0FF
:101B2000004106E008BF00281CBF6FF000414FF0E5
:101B3000FF3000F0FBB9ADF1080C6DE904CE0029CF
:101B400009DB002B1ADB00F04DF8DDF804E0DDE9DD
:101B5000022304B07047404261EB4101002B1BDBC4
:101B600000F040F8DDF804E0DDE9022304B0404273
:101B700061EB4101524263EB43037047524263EB16
:101B8000430300F02FF8DDF804E0DDE9022304B0A0
:101B9000404261EB41017047524263EB430300F066
:101BA00021F8DDF804E0DDE9022304B0524263EBE2
:101BB0004303704753B94AB9002908BF00281CBF26
:101BC0004FF0FF314FF0FF3000F0B0B9ADF1080C2D
:101BD0006DE904CE00F006F8DDF804E0DDE902234B
:101BE00004B070472DE9F04F099D884604468E46A3
:101BF000002B4AD18A4217465FD9B2FA82F64EB11B
:101C0000C6F1200301FA06FEB740B44020FA03F300
:101C100043EA0E0E4FEA17481FFA87FC230CBEFB5F
:101C2000F8F108FB11EE01FB0CF243EA0E439A4275
:101C300007D9FB1801F1FF3002D29A4200F2548119
:101C400001469B1AA2B2B3FBF8F008FB103300FB6D
:101C50000CFC42EA034294450BD9BA1800F1FF3359
:101C60002CBF01240024944502D9002C00F03F81B0
:101C7000184640EA0140A2EB0C0200211DB1F240DF
:101C80000023C5E90023BDE8F08F8B4205D90DB1D3
:101C9000C5E9000100210846F5E7B3FA83F1002900
:101CA0004ED14345C0F01281824240F20F81084676
:101CB000002DE8D0C5E9004EE5E7002A00F0AC8031
:101CC000B2FA82F6002E40F0BB808B1A4FEA124E19
:101CD000BCB20121020C80B2B3FBFEFC0EFB1C3334
:101CE00042EA034304FB0CF29A420ED9FB180CF1B2
:101CF000FF382CBF4FF001094FF000099A4203D979
:101D0000B9F1000F00F0EC80C4469B1AB3FBFEF85B
:101D10000EFB183304FB08F440EA034294420BD94B
:101D2000BA1808F1FF332CBF01200020944202D9D9
:101D3000002800F0D1809846121B48EA0C409DE72D
:101D4000C1F120068B4008FA01F400FA01F922FAE9
:101D500006F728FA06F88A401F4320FA06F3380CE3
:101D600023431FFA87FC1C0CB8FBF0FE00FB1E8807
:101D700044EA08440EFB0CF8A0450ED93C190EF1BC
:101D8000FF3A2CBF4FF0010B4FF0000BA04503D9D9
:101D9000BBF1000F00F0B880D646A4EB08041FFA90
:101DA00083F8B4FBF0F300FB134403FB0CFC48EA9C
:101DB0000444A4450ED93C1903F1FF302CBF4FF069
:101DC00001084FF00008A44503D9B8F1000F00F056
:101DD0009F80034643EA0E40A4EB0C04A0FB02ECF8
:101DE00064457346E04602D307D1F14505D2BEEB08
:101DF00002036CEB070C0138E0465DB1B9EB03025E
:101E000064EB080404FA06F622FA01F3CC401E4300
:101E1000C5E90064002136E7B1FBF2FC010C144671
:101E200080B2964641EA08412026904640EA0143A6
:101E30001046B1FBF2F1A3EB080341EA0C414BE77A
:101E4000B740C6F1200301FA06F221FA03F84FEA7F
:101E5000174E20FA03F3BCB2B0401343020C190C26
:101E600080B2B8FBFEF90EFB198841EA084109FB74
:101E700004F8884551D9791809F1FF3C2CBF4FF07F
:101E8000010A4FF0000A884502D9BAF1000F31D09B
:101E9000A1EB0801B1FBFEF909FB04F80EFB1911D7
:101EA0009BB243EA0143434535D2FB1809F1FF31A8
:101EB0002CBF4FF0010A4FF0000A4345BBD2BAF1E4
:101EC000000FB8D1A9F102013B44B4E7841A68EBD2
:101ED000030201209646EBE63A44A8F102082BE7FC
:101EE000ACF1020C3B4410E702393B44A9E63A440A
:101EF0000238BEE6A7EB0808A9F1020C4144B1FB89
:101F0000FEF909FB04F8C9E7AEF1020E3C4444E7D0
:101F1000023B3C445EE749468DE7A1EB0801CC4615
:101F2000B1FBFEF909FB04F8B8E700BF704700BF3A
:101F300008B5044C4FF0FF3120460EF077FE00F05C
:101F40008BFDF7E7D88200342DE9F04F91B006A859
:101F500000F090FFDFF89490DFF894A0A9F120083A
:101F6000504600F09EFC00270446049701F0C6FD91
:101F700006AB012104AA009003A8039400F094FF8B
:101F800001F0BCFD4FF0FF31019048460EF07EFDA0
:101F9000059B4FF0180BBB4203F10106B8BF0126A9
:101FA000DDF810E0DFF84CC0C8F85430013E0FD126
:101FB000DDE9002348469B1AC8F850310EF098FD21
:101FC000504600F06CFC012140460EF0ADFDC7E725
:101FD0000BFB07E50CF1180C0CF140040FCD0FC4FE
:101FE000013795E8030084E80300DFE7D0350034CB
:101FF00010070034B03500342DE9F74F0FF002F927
:10200000D0E90232D31A01930FF000F9D0E902357A
:10201000ED1A01F073FD00210446304800F024FC65
:10202000002100F009FDDFF8B4B0DFF8C4A001F032
:1020300065FD0646041B584600F033FC012181462D
:10204000504600F011FC804601F058FD4946074615
:10205000019A00200FF052F8002D20DD08F01F0C2F
:10206000AC44BFF34F8F6FEA080208EB0C0E7244CA
:10207000ACF1200C52091CF1200F02F1010ED8BF67
:102080004FF0010E41464EF001E01548C0F85C12D9
:1020900020310FF005C8BFF34F8FBFF36F8F2A4673
:1020A000414600200FF044F80E480AF093F801F082
:1020B00025FDC71B584600F0F2FB504600F007FC18
:1020C0004FF0FF3108480EF0E1FC0848C0E95247E4
:1020D00020300EF00DFD3446A9E700BF6035003416
:1020E00000ED00E000000034D0350034B03500349D
:1020F0001007003408B50021054800F0B5FB30B1E9
:1021000000F09FFCBDE80840014800F0E0BB08BDBE
:102110006035003408B500F03DFE00F02DFEBDE84E
:10212000084000F07EBC000001480EF09FBD00BFDB
:10213000D88200340368002BBCBF002303600B6807
:10214000002BBCBF00230B600368B3F5487FA4BF1E
:1021500040F21F3303600B68B3F5F07FA4BF40F279
:10216000DF130B60704700002DE9F04F2DED028B5F
:102170004FF0000BCC4ECFB0DFF884934FF0FF311F
:1021800048460EF053FD4FF0FF3109F120000EF0EC
:102190007DFC4FF48A7209F1540109A811F0F1FD98
:1021A000D9E95243029399F8643109F1200003936D
:1021B000D9ED568A99ED578AD9F8547099F860513B
:1021C00099F862A199F863810EF092FC01F096FCF7
:1021D00000F00EFE00214FF4F07308464FF44872F1
:1021E000CDF800B00FF06CFA304600F089FC002307
:1021F00004AA1946304600F0BFFC0FF075F8002124
:1022000002220846A94B01F0ADFA0FF06DF89DEDE2
:10221000047AB7EEC77AC18802228DED007BA44B09
:10222000002001F09FFA0FF05FF8C1880222A14B55
:1022300001EB4101002001F095FA0FF055F8022260
:10224000C188029B9140002000939B4B01F08AFAC9
:102250000FF04AF8C188062002224143974B002024
:1022600001F080FA002C00F09F800FF03DF807EE9F
:10227000904A9FED8B5BB8EE676B85EE067BC1885D
:1022800002228DED007B00208D4BC1EBC10101F0DE
:1022900069FA0FF029F8C18802228A4B01EBC101CB
:1022A000002001F05FFA0FF01FF8C1880A20022217
:1022B0004143854B0020009701F054FA0FF014F8C9
:1022C000C1880C2002224143804B002001F04AFAD1
:1022D0000D24002D73D00FF007F8B7EEE87AC1880F
:1022E00002228DED007B00206143794B01F03AFA28
:1022F0000EF0FAFFC18802220020764BC1EB0111DB
:1023000001F030FA002D64D00EF0EEFFB7EEC88A6F
:10231000C18802228DED008B0020654B090101F080
:1023200021FA0EF0E1FFC18812206B4B41430222DB
:10233000002001F017FA0EF0D7FF1323C18859438C
:10234000BAF1000F4FD0B8F1020F4ED8634B53F8DB
:102350002830022200200093614B01F003FA0EF0B6
:10236000C3FFC1881520022241435E4B002001F0CB
:10237000F9F90EF0B9FFC1881620039B4143009381
:1023800002220020584B01F0EDF900259FED578AFD
:10239000DFED578ADFF86C8109ACBD4227DB00F026
:1023A0003DFD01F0ABFBE7E60EF09EFFC188022287
:1023B0002046504BC1EBC10101F0D4F969E70EF0A2
:1023C00093FFC1880222284661434A4B01F0CAF9B3
:1023D0008EE70EF089FFC18802222846454B09018D
:1023E00001F0C0F99DE7444BB3E7444BB1E7D4EDAE
:1023F000017A67EE887AFDEEE77A17EE900AD4ED5F
:10240000027A67EEA87AFDEEE77A17EE901AD4ED1D
:10241000047A67EEA87AFDEEE77A17EE903AD4EDEB
:10242000037A67EE887AFDEEE77A17EE902A01329A
:1024300002EBD2720133521003EBD37352425B10A2
:102440005B4200EB020CCDF814C0801A01EB030CC8
:10245000C91A0790089105A806A9CDF818C0FFF77A
:1024600069FE08A907A8FFF765FEDDE9059A0B6874
:102470004FF0FF210268A3EB0A0348460091A2EB4C
:10248000090251460FF0FAF854F8183F032251465A
:10249000484658F8233001F065F901357DE700BF63
:1024A0000000000000408F4030060034D4691170F5
:1024B000DD691170E4691170EE691170F3691170D2
:1024C000F7691170FF691170076A11700A6A11705B
:1024D0000F6A1170166A11701F6A1170FC8E1170EC
:1024E000A6801170246A11702B6A11700000484494
:1024F0000000F043FC691170C8691170CC6911705B
:10250000B0350034088F117000232DE9F347009394
:10251000019301F03FFC002839D1684601A901F080
:102520003BFCB0FA80F56D09434C4FF0FF31009F42
:10253000019E42480EF0AAFA04F12000C4F8587136
:10254000C4F85C6184F860510EF0D2FA0121204693
:102550000EF0EAFA01F0D2FA4FF00008064604F154
:102560002007002001F0A4FC814600B300F078FBB6
:1025700005464FF0FF3138460EF088FA681E84F8A1
:10258000619103280CD8DFE800F0043D4850002595
:10259000CAE794F86231B3FA83F35B0984F86231D5
:1025A00038460EF0A5FA012120460EF0BDFA01F0E2
:1025B000A5FA801BB0F5FA6F20D301F09FFA01A9AC
:1025C0000646684601F0E8FB05464FF0FF31384605
:1025D000DDF800A0DDF804900EF058FAB5FA85F3A6
:1025E00038465B09C4F858A1C4F85C9184F860319E
:1025F0000EF07EFA012120460EF096FA32200DF000
:10260000A9FEAEE794F863310133DBB2022B94BF2D
:1026100084F8633184F86381C2E794F86431102B45
:10262000BED9013B84F86431BAE794F864311D2BBC
:10263000B6D80133F6E700BFB0350034D0350034EA
:1026400030B51A2200255C4B8DB05C4C83F86421B8
:10265000C3F8605100F00AFB94E8030008AA82E87E
:1026600003000221564800F0E3F8D4E902010AAA67
:1026700082E803000221534800F0DAF8524800F0E3
:1026800031FA2A46514B5249524800F065F920234D
:102690002A46294650480EF05BFA08B101F048F886
:1026A00000222023114644480EF052FA08B101F0EE
:1026B0003FF834230122002148480EF071F908B197
:1026C00001F036F801F0F2FB00F056FB002100F0BB
:1026D000A3F91D230A220293CDE903324FF480535C
:1026E0000124C02501933E4BCDE9054500933D4AA9
:1026F00000233D493D480EF0C5FA08B101F018F835
:102700001E234FF00A0E0293CDE9033E4FF480538F
:102710000193374BCDE905450093364A00233649EE
:1027200036480EF0AFFA08B101F002F81E234FF060
:102730000A0C0293CDE9033C4FF480530124C025D9
:1027400001932F4BCDE9054500932E4A00232E49D6
:102750002E480EF097FA08B100F0EAFF1C230A2079
:102760000293CDE903304FF480530193284BCDE918
:1027700005450093274A0023274928480EF082FA8E
:1027800008B100F0D5FF0123C0220A21CDE90532AE
:102790001D23CDE9033102934FF400630193204BD5
:1027A000204A00932049002320480EF06BFA08B11C
:1027B00000F0BEFF0DB030BDB0350034C067117001
:1027C000603500341007003430060034F5201070F6
:1027D0001521107029211070D8820034D0350034B2
:1027E00018720034F91F1070306A117018820034AA
:1027F00058610034491F10703A6A117058710034E2
:102800009850003469211070446A11709860003447
:10281000D83F0034311F10704E6A1170D84F003409
:102820001837003409251070596A1170183F0034A8
:1028300070B520230D4616460A46002104460EF0C8
:1028400087F920230022E01811460EF081F984F860
:1028500040502DB13368012D63641CBF7368A364BD
:102860000023A4F84C3070BD003918BF012110B509
:10287000494204460EF0DAF90D280ED094F84C3097
:1028800004EB8302506C94F840200133B3FBF2F167
:1028900002FB113384F84C3010BD0020FCE70EF031
:1028A000E5B910B504464FF0FF3120300EF0BEF907
:1028B00094F84D3004EB8302506C94F840200133BF
:1028C000B3FBF2F102FB113384F84D3010BD203020
:1028D0000EF0CCB907EE901AF8EE676A07EE902A70
:1028E0009FED1B6AB8EE677ADFED1A5A86EE865ABC
:1028F000C7EE257AB4EE675AF1EE10FA48BFF0EE53
:10290000457A27EE866A67EEA57AF4EEC66AF1EE9E
:1029100010FAB4EEE77ACCBFFCEEC66AFCEEE66ACB
:10292000F1EE10FA16EE903ACCBFBCEEE77ABCEEB0
:10293000C77A0131C91A17EE103A0132D21A490882
:102940005208C0ED006A80ED017A8160C260704774
:10295000000048440000F0432DE9F04F4FF002081A
:1029600095B007460E4615460021142203A81C46C2
:1029700010F070FF03A8CDF820800AF085FB00233B
:102980004FF4F072CDE90D334FF448734FF0010A64
:102990004FF00309CDE90932DDE9031210A8CDE9B2
:1029A0000BA8CDF83C90FFF795FF02AA09A9504665
:1029B0000AF024FA039B1022019300230BA8194666
:1029C000DDF810B010F046FFE0235A46019910A838
:1029D000CDE90933CDE90C9ACDF83C90FFF77AFFA9
:1029E000404602AA09A90AF009FA0FB1064B1F6076
:1029F0000EB1064B1E600DB1054B1D600CB1054BB1
:102A00001C6015B0BDE8F08F0483003400830034EF
:102A1000FC820034F88200340A46014601200AF0A4
:102A2000AFBA10B504460AF0E5F92346BDE81040F8
:102A30000022012103F0BEBB0A46014602200AF033
:102A40009FBA10B504460AF0D5F92346BDE81040F8
:102A50000022022103F0AEBB0AF072BB00B5E5B064
:102A60004FF4C8720021684610F0F4FE18220023CB
:102A7000CDE900234FF400134FF08051329303232C
:102A8000CDE9221328236846259305F0EFF8003896
:102A900018BF012065B05DF804FB0000012808B5EF
:102AA00005D1054B1B6803B19847002008BD0228DB
:102AB000FBD1024BF6E700BF04830034FC820034F4
:102AC000012808B505D1054B1B6803B198470020C4
:102AD00008BD0228FBD1024BF6E700BF008300349B
:102AE000F8820034054A0021D2F8FC3043F08073AC
:102AF000C2F8FC30E02210F0ADBE00BF00ED00E0F7
:102B000070B5044600F1380500F1200686B00FCEFE
:102B10000FC596E8030085E8030068460EF076FAD4
:102B200002A80EF07DFA04A80EF084FADDE9001088
:102B3000029B049D039ACB1840EB02025B19059D92
:102B4000C4E90A1042EB0502C4E9083200F0D6FFDE
:102B5000A36C226E20639B1AB3F57A7F04F13801CF
:102B600007D3902204F1500006B0BDE8704010F089
:102B700057BE06B070BD0000F8B504462DED028BBF
:102B800016461D460F46F9B1D4E91023D0E90A01D3
:102B9000801A61EB0301FEF787FFD4E90E239FED56
:102BA0002E7B41EC180BD4E90801801A61EB03017C
:102BB00028EE078BFEF778FF41EC160B88EE067BBC
:102BC000B7EEC77B87ED007AFEB1D4E91C32D4E9B9
:102BD0001601C01A61EB0201FEF766FFD4E91A3252
:102BE0009FED1D7B41EC180BD4E91401C01A61EB79
:102BF000020128EE078BFEF757FF41EC160B88EE1B
:102C0000067BB7EEC77B86ED007AFDB1D4E934329E
:102C1000D4E91601C01A61EB0201FEF745FFD4E9C1
:102C200032329FED0D7B41EC180BD4E91401C01A30
:102C300061EB020128EE078BFEF736FF41EC160B25
:102C400088EE067BB7EEC77B85ED007ABDEC028B84
:102C5000F8BD00BFAFF30080000000000000594045
:102C6000431E032B88BF002070470000F0B5374D8E
:102C700087B018220021684610F0ECFD002128469C
:102C8000334A10F0E7FDBFF34F8FDFF8E8E0002391
:102C90004EF001E02F4AE918C2F8701220330FF00D
:102CA00007C0BFF34F8FBFF36F8F2B4C002120461F
:102CB0002A4A10F0CFFDBFF34F8F4BF6803E002322
:102CC0004EF001E0234AE118C2F8701220330FF0F1
:102CD00007C0BFF34F8FBFF36F8F01F0B9FB6420C4
:102CE00001F0F6FB4FF4F076022300244FF448770E
:102CF000CDE903631A4B1B4A1B78694602FB035557
:102D00002046009402940197059501F0A9FB042345
:102D10000493154B694601200593CDE90174009495
:102D2000039601F09DFB11480EF078FA01200EF099
:102D3000A5FA20460EF004FD0D480EF0CDFA4FF036
:102D4000FF300EF0C1FA07B0F0BD00BF00081C91C3
:102D50000028230000ED00E00098049100701700A7
:102D60003000003400B80B00005010917C8F1170BF
:102D70000001003440190100034B04481A78044B49
:102D800000FB0230704700BF0983003400B80B001D
:102D900000081C91032310B5114C22780132B2FBBC
:102DA000F3F101EB4101521A0E4922700A78013207
:102DB000B2FBF3F303EB4303D21A0A7001F092FB68
:102DC0002178094B094C002204FB013104F02FFD4E
:102DD00001F088FBBDE810400022022104F00BBD89
:102DE000300000340983003400081C9100B80B0047
:102DF00010B572B601F076FB054B064C1978064B00
:102E0000012204FB013104F012FD62B610BD00BFC7
:102E10000883003400B80B000098049110B5114CE1
:102E200011492278114B01FB0233BFF34F8F45F656
:102E3000C05E4EF001E00E4AC2F8683220330FF057
:102E400005C8BFF34F8FBFF36F8F72B601F04AFB17
:102E50000122022104F0CFFC62B62378C3F1010302
:102E6000237010BD0883003400B80B000098049153
:102E700000ED00E0094A05218261094AC261012290
:102E8000C0E900210722C0E9022231220261054A7D
:102E900002620A2242610CF099BB00BF9A99193F65
:102EA0009A99993E508F117013B50C46012C11461A
:102EB0001A4605D0C421064B064A07480FF0B4FA5B
:102EC000036801A801930CF085FB02B010BD00BFA0
:102ED000896A11703C8F1170976A1170044B82B02F
:102EE000C3F85C0AD3F85C320193019B02B07047CF
:102EF000008002562DE9F04F0124022703254FF4EC
:102F0000806699B001F078FB1422002113A810F01C
:102F1000A1FC0820FFF7E2FF1020FFF7DFFF0220EF
:102F2000FFF7DCFF8020FFF7D9FF4FF40040FFF7E9
:102F3000D5FF4FF48040FFF7D1FF4020FFF7CEFFD1
:102F40002020FFF7CBFF4FF40050FFF7C7FF012011
:102F5000FFF7C4FF0420FFF7C1FF01224FF4806197
:102F60005E4803F071FD002250215D4803F06CFDC6
:102F7000002208215B4803F067FD01224FF48061C5
:102F8000574803F061FD554813A9CDE91364CDE915
:102F9000157503F0B3FB50234FF0080B504813A9ED
:102FA000CDE91334CDE9154503F0A8FB4D4813A92D
:102FB000CDE913B4CDE9154503F0A0FB484813A9AA
:102FC0004FF00008CDE91364CDE9157503F096FBC9
:102FD00011234FF0400A424813A9CDE91434CDF82B
:102FE0004CB0CDF8588003F089FB3F4813A9CDE9D8
:102FF00013A8CDE9154803F081FB3C4813A9CDE99E
:103000001378CDE9154803F079FB4FF40063344899
:1030100013A9CDE91338CDE9154803F06FFB4FF440
:10302000005313A93048CDE91338CDE9157803F0E2
:1030300065FB4FF4E133DFF8D4902D4A4846C9E9E7
:1030400000230C23C9E90288C9E90538C9E90788C2
:10305000C9E90988C9F8108008F085FB014608B164
:1030600072B6FEE7484608F0ECFB014608B172B6BE
:10307000FEE7484608F005FC08B172B6FEE7484690
:1030800008F0C4FB08B172B6FEE71A4A1A4B1046A4
:10309000136004F061FC08B172B6FEE7174A184BE2
:1030A0001046136004F058FC08B172B6FEE7DFF872
:1030B0006090144B4846C9F8003004F04DFC08B14C
:1030C00072B6FEE7DFF84C800F4B4046C8F8003080
:1030D00004F042FC00B372B6FEE700BF00100256D7
:1030E000001802560000025600080256000C025654
:1030F0000010005288940034003102527C94003455
:10310000803102520032025280320252D093003497
:1031100070940034649400340190D24804F039FC77
:10312000D14804F036FC48464FF4007904F031FCF5
:103130004046DFF8788304F02CFCC8F8589AD8F899
:10314000582213A903920920039ACDE9137508F0B8
:1031500041F8584613A908F03DF813A90A2008F0D1
:1031600039F813A90B2008F035F8204613A908F008
:1031700031F82946BD4808F043F82946BC4808F014
:103180003FF82946BB4808F03BF82946BA4808F002
:1031900037F82946B94808F033F82946B84808F006
:1031A0002FF82046202104F06FFB594640F20132EF
:1031B000B44803F04EFC40F201321021B24803F053
:1031C00048FC40F201324FF48041AF4803F041FC2B
:1031D00040F201322021AD4803F03BFC514640F261
:1031E0000132AA4803F035FC314640F20132A748CB
:1031F00003F02FFC40F201321021A54803F029FC16
:10320000514640F20132A24803F023FC314640F21D
:1032100001329F4803F01DFC594640F201329C48A0
:1032200003F017FC40F201324FF40061984803F0BC
:1032300010FC514640F20132964803F00AFC40F27D
:1032400001324FF40051934803F003FC394640F239
:1032500001328D4803F0FDFB214640F201328E48D9
:1032600003F0F7FB394640F201328B4803F0F1FBE3
:1032700040F201320421884803F0EBFB594640F24A
:103280000132854803F0E5FB40F20132102182480B
:1032900003F0DFFB40F2013220217F4803F0D9FB2D
:1032A000514640F201327C4803F0D3FB40F2013238
:1032B0004FF48071784803F0CCFB494640F201326C
:1032C000754803F0C6FB314640F20132724803F004
:1032D000C0FB40F201324FF400616F4803F0B9FBCC
:1032E000214640F201326D4803F0B3FB40F2013257
:1032F00004216A4803F0ADFB40F201321021674817
:1033000003F0A7FB40F201322021644803F0A1FB47
:10331000214640F20132624803F09BFB394640F2FD
:1033200001325F4803F095FB40F2013204215C4812
:1033300003F08FFB594640F20132594803F089FBF4
:1033400040F201321021564803F083FB40F2013273
:103350002021534803F07DFB514640F20132504892
:1033600003F077FB40F2013280214D4803F071FBFE
:1033700029464C4807F044FF019B184601F0D6F857
:103380004FF00043C8F8603AD8F860220492049ADB
:10339000454AC8F8203AC2F82032C8F8586AD8F826
:1033A00058320593059BC8F8186AC2F8186208F0ED
:1033B000DDFA08F0E5FA4FF0FF33C8F8843AD8F8A0
:1033C00084221392139AC8F88C3AD8F88C2212925D
:1033D000129AC8F8903AD8F890221192119AC8F827
:1033E000943AD8F894221092109AC8F8983AD8F8DB
:1033F00098220F920F9AC8F89C3AD8F89C220E9205
:103400000E9AC8F8A03AD8F8A0220D920D9AC8F8E2
:10341000A43AD8F8A4220C920C9AC8F8A83AD8F882
:10342000A8220B920B9AC8F8AC3AD8F8AC220A92B0
:103430000A9AC8F8B43AD8F8B4220992099AC8F896
:10344000B83AD8F8B8220892089AC8F8BC3AD8F81E
:10345000BC220792079AC8F8883AD8F888320693AF
:10346000069B25E0889400347C9400341D000020E5
:103470000500003006000030070000300800003072
:103480000A00003000000256000C025600100256DE
:103490000018025600080256003402560038025640
:1034A000003C02561C00002000900256008002568C
:1034B00019B0BDE8F04FFFF7C3B800BF08B52D4BFA
:1034C0001A6842F400521A601A6842F480521A6074
:1034D000A3F573435A6912F4003211D1BFF34F8F31
:1034E000BFF36F8FC3F85022BFF34F8FBFF36F8FBF
:1034F0005A6942F400325A61BFF34F8FBFF36F8FA6
:103500001D4A536913F4803328D1C2F88430BFF3C5
:103510004F8F43F6E074D2F88030C3F3C900C3F391
:103520004E335B0100F1010E01464EF001E003EA6B
:10353000040646EA8175C2F8605201390FF007C8E7
:10354000203B13F1200FEDD1BFF34F8F536943F4AC
:1035500080335361BFF34F8FBFF36F8F01F04CF88F
:1035600001F04AF90CF09EF90CF076F901F044F8FC
:10357000FEE700BF00E001E000ED00E008B54FF419
:1035800040330748074A0221C0E900230023C0E96D
:10359000021302F081FF08B172B6FEE708BD00BF5A
:1035A000909500340010025810B5114A114C124B7E
:1035B0002046C4E9002300230122C4E90433C4E9FE
:1035C0000232C4E90633236203F095FB014608B1D9
:1035D00072B6FEE7204603F0B5FD014608B172B6AB
:1035E000FEE7204603F0D4FD08B172B6FEE710BD39
:1035F000005800503C950034FFEDC0302DE9F043F9
:103600009BB034220021684610F024F934220021B6
:103610000DEB020010F01EF90023314C314A2F212E
:10362000C4E9002302228720C4E90512222240F2C5
:10363000A735C4E9070240F2022240F2CF36C4E9BE
:10364000095240F20F222046C4E90B62C4E902335A
:103650002361A38684F8363004F03AF8024608B1B4
:1036600072B6FEE74FF448764FF0FF094FF4F0755D
:1036700004234FF4C0680727CDE90160CDE9059028
:10368000CDE909060090ADF830008DF832006946AA
:103690002046CDE90353CDE907870B9504F072F876
:1036A00008B172B6FEE70823CDE90D06CDE90F0596
:1036B000CDE91308CDE91570ADF864008DF866000A
:1036C000012220460DA9CDE91139CDE9176504F095
:1036D00059F808B172B6FEE71BB0BDE8F08300BF31
:1036E00094940034001000580123C02200B589B022
:1036F0000A21CDE905321F23CDE9033102934FF4AE
:1037000080530193064B074A00930749002307485B
:103710000DF0B8FA08B172B6FEE709B05DF804FB27
:103720000A830034F52E10700B6B11701093003467
:1037300072B6FEE7C0B26DED81CF11B140B1012884
:1037400009D09FEC100A9FE80F90FDEC81CF7447E1
:10375000024B1960F5E7024BFBE700BFFC95003414
:10376000F895003408B4F3B504460D46164607AB89
:10377000094F53F8042B3021384601930FF0AEFF68
:1037800033463A46294620460DF02EFF02B0BDE8EA
:10379000F04001B0704700BF00960034044B82B087
:1037A000C3F84C0AD3F84C320193019B02B0704726
:1037B00000800256044B82B0C3F85C0AD3F85C3236
:1037C0000193019B02B0704700800256044B82B007
:1037D000C3F8600AD3F860320193019B02B07047CE
:1037E0000080025608B504F09FF80121084604F055
:1037F0006BF804F0A1F80121022004F065F804F050
:10380000A3F8BDE808400021032004F05DB80000E3
:103810000268034B9A4202D10220FFF7D7BF7047DC
:103820000010025810B50446EAB01422002101A885
:1038300010F010F84FF4C872002106A810F00AF832
:103840002268174B9A4228D100234FF40052CDE949
:103850000623144B06A8419304F008FA08B1FFF7B9
:1038600067FF0820FFF7A6FF44F210021223002191
:10387000CDE901230323CDE9031304230A480DEB0B
:103880000301059302F03AFF4FF48002074BC3F89F
:10389000642AD3F864320093009B6AB010BD00BF65
:1038A000005800500C040007000C0256008002561D
:1038B00008B50268094B9A420FD14FF48002084BB9
:1038C00010210848C3F8642203F008F8BDE8084056
:1038D0004FF48041034803F001B808BD0058005080
:1038E00000900256000C0256F0B50446EBB01422CC
:1038F000002101A80FF0AEFF4FF4C872002106A806
:103900000FF0A8FF22683A4B9A426ED100234FF085
:103910008072CDE906234FF000734C9318234FF0CB
:1039200000510DEB0300CDE9261304F09FF908B117
:10393000FFF7FEFE02242F4B2046C3F87C4AD3F843
:103940007C3200260093009BFFF734FF8020FFF7B6
:1039500031FF2020FFF72EFF0120FFF72BFF402033
:10396000FFF728FF03250E2749F63243224801A915
:10397000CDE90134CDE90365059702F0BFFE1023C0
:103980001E4801A9CDE90134CDE90365059702F090
:10399000B5FE4FF440731A4801A9CDE90134CDE9D1
:1039A0000365059702F0AAFE49F6A773154801A919
:1039B000CDE90134CDE90365059702F09FFE4BF296
:1039C0000623114801A9CDE90134CDE90365059726
:1039D00002F094FE0123CDE901340A230A4801A92B
:1039E000CDE90365059302F089FE6BB0F0BD00BF21
:1039F000001000580080025600040256001C0256B7
:103A000000140256000002560018025607B54FF483
:103A100080520120FFF7C2FE0220FFF7BFFE042004
:103A2000FFF7BCFE0820FFF7B9FE054BC3F8542A88
:103A3000D3F854320193019B03B05DF804FB00BF3F
:103A40000080025610B50446EAB01422002101A8F5
:103A50000FF000FF4FF4C872002106A80FF0FAFE25
:103A60002268144B9A4223D14FF480730022CDE98F
:103A70000623114B06A85A9304F0F8F808B1FFF793
:103A800057FE10200D4B6022C3F86C0AD3F86C323D
:103A900001A90093009BFFF78DFE0223CDE90123CE
:103AA0000023CDE9033307230548059302F026FEE2
:103AB0006AB010BD001000523000010700800256AD
:103AC0000010025608B50268094B9A420ED14FF415
:103AD0008060FFF763FE4FF08040FFF777FE054BF5
:103AE000C3F8200A03F58053C3F8200208BD00BFC5
:103AF00000FC0D5800800256002070470CF0FEBDFF
:103B00000CF028BCFEE7FEE7FEE7FEE7FEE7FEE777
:103B10007047704708B509F06DF9BDE8084001F03D
:103B200004BA08B509F066F9BDE8084001F034BBF5
:103B30000120704708B510F0E1F8162303604FF03C
:103B4000FF3008BD08B510F0D9F816230360FEE772
:103B500070B50D4614460E46731B9C4201DC204690
:103B600070BDAFF3008006F8010BF5E770B50D46A8
:103B700014460E46731B9C4201DC204670BD16F8AD
:103B8000010B00F0DDFCF5E74FF0FF3070474FF41C
:103B9000005300204B6070470120704700207047A1
:103BA0000B4A0346116810B509B90A49116010683B
:103BB00009490A4C0344091B8B4206D910F09EF8B0
:103BC0000C2303604FF0FF3010BD1360FCE700BF13
:103BD00030960034585C01340000203400080000A6
:103BE0000F4880F30A880F48854600F0B9FC0E485C
:103BF0000E490F4A002302E0D458C4500433C418BD
:103C00008C42F9D30B4A0C4C002301E013600432C0
:103C1000A242FBD310F078F8FFF750FCFEE700005B
:103C200000F81F340000203400000034D0020034BB
:103C3000B4D51270E0020034585C0134FEE7000095
:103C400008B5044B1A781AB901221A70FFF7ACFCB8
:103C5000002008BD3496003408B5064A137833B105
:103C6000013BDBB2137013B9034803F099F800204D
:103C700008BD00BF349600343C9500341FB54FF4A6
:103C80007A740092CDE901340A46022301460448C1
:103C900003F0A0F8003818BF0120404204B010BD66
:103CA0003C9500341FB54FF47A740092CDE901348D
:103CB0000A4602230146044803F066F9003818BF9B
:103CC0000120404204B010BD3C950034FFF716BF00
:103CD00070B5002208211B4802F0B6FE1220FFF743
:103CE0000FFF01220821174802F0AEFE232000F04A
:103CF000FDFB0025134E0821304602F09FFE0446CE
:103D000040B10135592D4FF0010000D170BD00F0D8
:103D1000EDFBF0E7EDB2582D12D00A4D08212846F0
:103D200002F08CFE28B1E4B25B2C94BF002001208D
:103D3000ECE701345D2CF7D0012000F0D7FBEDE774
:103D40000120E3E70018025610B5F0B10246002347
:103D50000A24114601330929B2FBF4F2DBB2F8D888
:103D6000002B03F10102B7EE007AF2EE047A08BFED
:103D70000122013A06D107EE900AF8EE677A87EE43
:103D8000870A10BD27EE277AF3E79FED010AF8E7CF
:103D900000000000FFF79CBF2DE9F04F85B0894679
:103DA0000190FFF795FF044620B10124204605B09D
:103DB000BDE8F08F0546DFF8F0A00DF1080B0026F6
:103DC00007274FF0000802E0012000F08FFB0821D8
:103DD000504602F033FE30B108F10108B8F1580F37
:103DE000F2D1002625E05FFA88F2572AF9D0804602
:103DF0000821504602F022FE40B908F10108B8F14E
:103E00003B0FEED0012000F071FBF1E75FFA88F381
:103E10003A2BE6D0442000F069FB0821504602F01E
:103E20000DFE003818BF0120B8403043013FC6B234
:103E3000C7D20135EDB2052D0BF8016BBFD19DF84E
:103E400008209DF809009DF80A609DF80B50131892
:103E500056FA83F39DF80C1055FA83F3DBB29942BE
:103E6000A3D107EE902AF8EE676AFFF76DFF76EEB2
:103E7000806A07EE906A2B0644BF05F07F058DF837
:103E80000B50C9ED006A9DF80B004CBFBFEE006AF5
:103E9000B7EE006AF8EE676AFFF756FFA6EE860AED
:103EA000019B83ED000A81E700180256704700006D
:103EB00010B5334C90B3012323704FF400513148B7
:103EC00002F0BCFD002846D00A20FFF719FE0023AF
:103ED0004FF400612C48237002F0B0FD044602212B
:103EE0002A4802F0ABFDB4FA84F400284FF04001F8
:103EF00024484FEA54144FEA840408BF032402F014
:103F00009DFD4FF4005100281E4808BF022402F016
:103F100095FD002818BF0124204610BD2378012BF1
:103F2000CBD04FF40051174802F088FD88B94021EA
:103F3000144802F083FD60B10221144802F07EFDB6
:103F400038B14FF40061104802F078FD08B1012348
:103F500023700024E0E740210A4802F06FFD0028AA
:103F6000B2D00221094802F069FD0028ACD04FF41C
:103F70000061054802F062FD0028A5D0D1E700BF2E
:103F8000310000340008025600180256000C025698
:103F900070B534260D4D0E48AC682D6806FB040044
:103FA000846C05FB0211C06D24B950F8212000205B
:103FB0001A6070BD062C05BF01EB41010A5830F8AC
:103FC000112022F07F4218BF92B2F0E738960034F9
:103FD00094940034F0B534271D4C1E4EA06807FBA6
:103FE0000060D0F848C0C56D206800FB0210BCF12D
:103FF000000F03D145F820300020F0BDBCF1060FC2
:1040000022D15FFA83FC00EB4000033D00F805C0BD
:10401000A568206807FB056500FB0210ED6D00EB4D
:104020004000C3F3072C023D00F805C02068C3F32D
:10403000074300FB0212A16802EB420207FB016684
:10404000F16D01395354D7E79BB225F81030D3E70F
:104050003896003494940034024B00201B680B60A7
:10406000704700BF38960034024B00205B680B603D
:10407000704700BF3896003434200F4B0F4A9960C8
:1040800000FB01210A6E1A604A6E5A608A6C042A8B
:104090000BD0082A0CD0062A0BBF032204220121D0
:1040A00000210020C3E90312704702221146F8E7FD
:1040B00002220421F5E700BF3896003494940034BE
:1040C000024B0020DB680B60704700BF389600345D
:1040D0002DE9F3419046304A0F46D1680646022941
:1040E000089C35D140F2031C40F20F20C4F3451563
:1040F000C4F3C4220CFB05F5424304F01F044443FF
:1041000021351732AD0992092D02173445EA0245CF
:1041100045EA941545F07F444FF440321F4D204846
:10412000C5E90213C5E90002284602F0B5F978BBDB
:104130003B46324621462846CDF8008002F0E9F998
:1041400030BB3221284602B0BDE8F04102F0FBB995
:10415000042917D1C4F3033202EB0210C4F3032283
:1041600002EB0212120442EA006204F00F0000EBBC
:1041700000100243C4F3031004F0F004044442EAC4
:104180000424C9E7012914BF002144F07F44C3E798
:1041900002B0BDE8F08100BF38960034909500343D
:1041A0000010025873B50C4D0C462E69A8681946CC
:1041B0002B68342502FB0344084A5B1A05FB0022E6
:1041C000D06D079A06FB04000092069AFFF780FF65
:1041D000002002B070BD00BF3896003494940034C3
:1041E00073B50C4D14462E69A8681A462B68342501
:1041F00004FB03140849013B05FB0011C86D069937
:1042000006FB040000910121FFF762FF002002B0CD
:1042100070BD00BF389600349494003437B50C4616
:1042200019460B4B18681D6900FB024434209A683C
:10423000084B00FB0233D86D069B05FB040000937E
:1042400001220023FFF744FF002003B030BD00BF70
:104250003896003494940034F7B51746194A0E4640
:10426000D4684FF48031013C032C8CBF0022164AE5
:10427000054698BF125D1548154CC4E90001A260BF
:10428000FF2100222046C4E91123E260E264216597
:1042900002F002F9A0B90121204602F0D1F978B963
:1042A00001233246009329463B46204602F031F96D
:1042B00030B93221204603B0BDE8F04002F043B9E6
:1042C00003B0F0BD38960034788F1170001002589A
:1042D000909500342DE9F74F284E1C46F36815469B
:1042E000013B032B884688BF00234FF0340A98BF58
:1042F000234A0D9F98BFD35CDFF88890DFF888B021
:104300002F44BD4203D1002003B0BDE8F08FB16857
:1043100030680AFB019105FB008C3269C96D02FB14
:104320000C114243002A1DDD04F01F001044BFF3AE
:104330004F8FE24304EB000E7244203852092030C4
:1043400002F1010ED8BF4FF0010EA4464EF001E07D
:10435000CBF868C20CF1200C0FF007C0BFF34F8FF1
:10436000BFF36F8F20460C9A0193FFF775FF0C9BEC
:104370003269013502FB0344019BC2E738960034E1
:10438000788F11709494003400ED00E04FF0340CFD
:104390002DE9F84F1F4F9D8B3C68BE6804FB02114E
:1043A0001D4A3C690CFB0622D66DA5F12002072AA6
:1043B00004FB0166D3F80A00D3F812A0D3F81690D4
:1043C00017D9A5F11002072A8CBF4FF0010B4FF04F
:1043D000020B4FF00008ED080AFB05F509F1FF326A
:1043E00005FB02006D421C18C84505D10020BDE840
:1043F000F88F4FF0000BECE731465B462046524603
:10440000FFF72AFF3B6939682C4401FB036608F17A
:104410000108E9E73896003494940034022810B576
:10442000044605D001280ED004280CBF0224042421
:10443000064BC3E90304C3E90012FFF79FF8BDE888
:104440001040FFF7DBB80324F2E700BF38960034D2
:104450004FF4F0724FF448710220FFF7DFBF000005
:1044600070B5FF260C468EB024220021054605A813
:104470000FF0F0F94FF4C06E06960726A268E368C5
:10448000206804939B1A61680C932369CDE908E6C0
:1044900066690291022BA1EB0001019003920A963A
:1044A0000B910AD1042305936B1E5A425A4101A96C
:1044B000064803F067F90EB070BD042B01D1082344
:1044C000F1E7002BF0D00623EDE700BF9494003411
:1044D000024600B101220821014802F0B5BA00BF2E
:1044E0000000025600487047949400340D4B0E4A69
:1044F0001B6870B5B3FBF2F34FF0E0245843002380
:104500006569A169A2699142FCD095BFAE1A5B189A
:104510009B199B1A98BF5B18834200D370BD11464C
:10452000F0E700BF3400003440420F00034B02228A
:1045300018680023806819460EF074BF1401003417
:1045400007B54FF6FF730190012201A9034807F058
:1045500058F8019803B05DF804FB00BFD093003415
:104560001E491F4AD1F88C3010B543F44063C1F89E
:104570008C30536B23F0E05343F08053536300229D
:10458000184BC3F88022C3F88422C3F88822C3F8EA
:104590008C22C3F89022C3F89422C3F898220122F7
:1045A000114B8B60114BC3F8782AD3F878028C68D2
:1045B0000F4803F5805304610069C3F87822D1F8ED
:1045C00088300C4A43F47003C1F88830D2F8883040
:1045D00043F47003C2F8883010BD00BF00ED00E066
:1045E00000EF00E000E100E00004107000800256DF
:1045F0000080005600ED02E06E4BF0B51A6A02F43E
:104600004012B2F5001F00F0B88006D862B99A6C6B
:10461000694BC2F3C112D34003E0B2F5401F0BD087
:104620000023664A1360F0BD5B6C654A13F4007F9B
:10463000644B08BF1346F4E7D3F8C42002F040529D
:10464000B2F1805F2AD0B2F1005F36D0002A43D1A8
:10465000D3F880703D0107F0E04100F19680D3F877
:104660008400D3F88820C7F30B2420F07F400E4647
:10467000B6F1005FC2F3C265C7F30551C2F302622F
:104680004FD07CD8002E3CD000264A4B4C4F5B6C60
:1046900013F4007F4B4B08BF3B4638E0D3F89070D3
:1046A0003C0107F0E04170D4D3F89400C7F30B2429
:1046B000D3F8982020F07F40D9E7D3F8A0703801D4
:1046C00007F0E04161D4D3F8A400C7F30B24D3F87A
:1046D000A82020F07F40CAE7D3F8B0703A0107F075
:1046E000E04152D4D3F8B400C7F30B24D3F8B82078
:1046F00020F07F40BBE70A460D4608460C464FF0C7
:1047000000662C4B9F6C2C4BC7F3C117FB404EB17E
:10471000284AD2F8C420C2F307420132B3FBF2F3B5
:104720007FE7294B07EE100AB8EEC76A07EE104A7A
:1047300007EE903ADFED256AB8EEC77AF8EEE77A31
:10474000A6EE267A67EE877A07EE101AB8EEC77AD9
:10475000C7EE876A07EE905AB8EEE77A07EE902A1E
:10476000F8EEE77A27EE277AC6EE877AFCEEE77A4C
:1047700017EE903ACCE7144BCAE7134B51E7B6F16A
:10478000405F134B18BF0023CCE7B1F1005FF2D0BC
:1047900009D80029AFD000224FF000661546104618
:1047A0001446114671E7B1F1405F094B18BF002371
:1047B000AEE700BF008002560090D0033400003402
:1047C00000093D000024F400006CDC02000080338E
:1047D0000080BB006DED81CF00B5FFF70DFF054BED
:1047E0005DF804EB18689FEC100A9FE80E90FDEC52
:1047F00081CF74473400003410B5032000F09AF8DC
:10480000FFF7FAFE0F20FFF777F9044618B9FEF715
:10481000E9FF204610BD0124FBE738B504680546D2
:10482000606810F009003FD1A860012028711220B3
:10483000013BE060C4F804211A44C4F80821D4F80C
:10484000003123F006031943049BC4F80011012B27
:10485000A3680AD143F01003A360D4F8003143F0F9
:104860000103C4F8003100201DE023F01003A36011
:10487000D4F8003143F00103C4F80031FFF73EF9EA
:1048800004462B685B68DB06EDD4FFF737F9001BA5
:10489000C828F6D92B685B68DA06F2D41023AB601F
:1048A000062301202B7138BD0220FCE738B50446F1
:1048B000E8B103685B68D90707D400202268A060CC
:1048C000136843F00103136038BDFFF717F905467D
:1048D00023685B68DB07F0D5FFF710F9401B012860
:1048E000F6D923685B68DA07F2D41023A3600120AD
:1048F000EAE710B5044660B103790BB9FFF7E2F8B7
:104900000023A360012323712046BDE81040FFF778
:10491000CDBF012010BD134607B540B10022009263
:104920000A460621FFF779FF03B05DF804FB01207A
:10493000FAE7000007490302CA6803F4E06322F4BF
:10494000E0621204120C134343F0BF6343F40033DC
:10495000CB60704700ED00E070B5184CE368C3F31E
:104960000223C3F10705042D03F1040628BF042523
:10497000062E4FF0FF36A3F1030398BF002306FA7B
:1049800005F521EA05019E40002801FA03F122EA1B
:104990000602B8BF00F00F0041EA0203A8BF00F111
:1049A00060404FEA0313B8BF0438DBB2ABBF00F579
:1049B0006140241880F80033237670BD00ED00E0DC
:1049C000002807DB01234109034A00F01F00834050
:1049D00042F82130704700BF00E100E0F8B514460E
:1049E000036871BBD3F8042422F4C01242EAC44223
:1049F000C3F80424234B022C1A6838D0032C39D076
:104A0000012C3AD142F040021A60FFF777F84FF4D8
:104A1000003607461B4DA640FFF770F8C01BB0F5E7
:104A20007A7F2DD8D5F8903036EA0303F4D14FF4CD
:104A300088530020D5F88020A3401343C5F8803068
:104A4000F8BD0129D3F8042806D122F4C01242EAA5
:104A5000C442C3F80428CDE7520341BFD3F8042C65
:104A600022F4C01242EAC442C3F8042CC2E742F462
:104A70008062C9E742F48042C6E742F00402C3E71D
:104A80000120DDE700600058012930B54FF0020534
:104A9000046810D18571D4F800190B43C4F80039AB
:104AA000C4F8C429D4F8F03343F4060343F02003D8
:104AB000C4F8F03330BD08444571D4F8001D0B43F1
:104AC000C4F8003DC4F8C42DD4F8F03343F00643D5
:104AD000ECE770B415461E4699B90223016843718C
:104AE000D1F800253243C1F80025C1F8C455D1F8EA
:104AF000F03370BC43F4064343F02003C1F8F033B5
:104B0000704770BCFFF7C0BF022383710368D3F8FE
:104B1000042842F00042C3F80428D3F8002942F0E8
:104B20000802C3F80029704769B90368D3F8042460
:104B300042F00042C3F80424D3F8002542F00802F2
:104B4000C3F800257047012901D1FFF7DDBF0368D5
:104B5000D3F8042C42F00042C3F8042CD3F8002D03
:104B600042F00802C3F8002D70470000184B10B542
:104B70005A69C9B242F480325A611A6942F001029C
:104B80001A615A6942F480325A6100221A615A61EC
:104B90005C695C611C6944F001041C611A615C6918
:104BA00044F480345C611C6944F001041C615C695C
:104BB000044344F480345C611A615A6158690143CA
:104BC0005961196941F0010119611A6110BD00BFF5
:104BD0000070005810B5044668B103790BB908F0AD
:104BE000DBFA03230020237101236071A071E071BF
:104BF000A060237110BD0120FCE700002DE9F04109
:104C00000446FEB00D464FF4FC7268463F490FF073
:104C1000B8F81CB901207EB0BDE8F081002DF9D0B4
:104C20003B4B1A6822F001021A60696801291AD107
:104C30002A6842F404121A671A6842F001021A60E4
:104C4000D3F8802042F0B04242F40412C3F880202E
:104C50002A68B2F5807FD3F8842054D1012908D185
:104C600042F01F0207E00229D4D12A6842F49012D0
:104C7000E1E742F4F8520026264CC3F8842023686A
:104C8000234F23F0020323607E602369012043F059
:104C900001032361FEF734FF2661D5F80880A3687D
:104CA0005DF8382023F4FE4343EA022343F028034F
:104CB000A360382108201602FFF758FF1121E420D5
:104CC000FFF754FF0DEBC803D3F80480E3204FEA4D
:104CD000182146F48036FFF749FF46F02806E32006
:104CE0005FFA88F1FFF742FFA6602B680020B3F55A
:104CF000807F0CBF07230F237B60236843F00203F0
:104D00002360606087E742F4F852A9E7D06711702A
:104D1000006000580070005830B558B152B10379A6
:104D2000013B012B3FD8146824F48033B3F5003FD6
:104D300002D1F9B1012039E0022914BF2346002332
:104D40005568B4F5803F43EA0503056802D0B4F521
:104D5000003F04D102292AD0926843EA022369B1B4
:104D6000012924D1D5F80418154A0A401A43C5F878
:104D700004280BE0B4F5403F2346E1D10168104A16
:104D8000D1F8044422401A43C1F804240368D3F83C
:104D9000042122F48042C3F80421D3F8042242F013
:104DA0000102C3F8042202230371002030BDD5F8AC
:104DB000042C22F03F021343C5F8043CE6E700BF91
:104DC000C0C0FCFFF0B1032908D8DFE801F00209F8
:104DD0000F150D4B120242F001021A6100207047BC
:104DE000094B120242F001021A62F7E7064B120267
:104DF00042F001021A63F1E7034B120242F0010292
:104E00001A64EBE701207047006000580346F0B5D4
:104E100000285FD0002A5DD0022902D190680628C0
:104E200058D85C1860791D79C0B2022DEEB251D10C
:104E300010F0FB004ED166711B68176849B9D3F8B2
:104E4000002522F003023A43C3F8002501236371D1
:104E5000F0BD0129D2E9015626D1D3F800291E4917
:104E600022F003023A43C3F80029D3F8C02922F004
:104E70000F023243C3F8C029D3F8CC290A402A4391
:104E8000C3F8CC29F21F012A06D8D3F8DC290A403E
:104E90002A43C3F8DC29D9E7092ED7D1D3F8DC2976
:104EA0000A4042EA5502F4E7D3F8002D22F003024B
:104EB0003A43C3F8002DD3F8C02D22F00F0232433D
:104EC000C3F8C02DD3F8CC2D6FF30E022A43C3F8DC
:104ED000CC2DBBE70120BBE70080FFFFF8B50E46F5
:104EE0001F46044610B901252846F8BD1D07FAD112
:104EF00003684518D3F804326D79012DF3D1DB072F
:104F0000F1D5FFF76BFD05460028ECD13146204670
:104F10003A46069BFFF7DDFD31462046FFF704FECB
:104F2000E2E77047704770477047036870B5D3F881
:104F3000F86304467204D3F8F05312D5690410D50F
:104F4000D3F8F023002122F48042C3F8F0238268D2
:104F500042F0040282604FF48042C3F8FC23FFF762
:104F6000E1FF72050AD56B0508D54FF4806223680E
:104F700000212046C3F8FC2308F0EEF8B00516D552
:104F8000A90514D52368D3F80025520707D5D3F80F
:104F9000F02322F40642C3F8F023012262714FF499
:104FA000007200212046C3F8FC2308F0E5F8F30561
:104FB0000AD5E80508D54FF4807223680021204601
:104FC000C3F8FC23FFF7ADFF310416D52A0414D52E
:104FD00023680021D3F8F023204622F40042C3F8CE
:104FE000F023A26842F00802A2604FF40042C3F826
:104FF000FC2304236371FFF796FFF3030AD5E8034C
:1050000008D54FF48032236801212046C3F8FC23E1
:10501000FFF787FF71030AD56A0308D54FF4802292
:10502000236801212046C3F8FC2308F095F8B30358
:1050300016D5A80314D52368D3F80029510707D53E
:10504000D3F8F02322F40602C3F8F0230122A27160
:105050004FF4003201212046C3F8FC2308F08CF8FD
:10506000320216D52B0214D523680121D3F8F02380
:10507000204622F40002C3F8F023A26842F0100296
:10508000A2604FF40002C3F8FC230423A371FFF7CE
:105090004AFFF0010AD5E90108D54FF08072236874
:1050A00002212046C3F8FC23FFF73BFF72010AD51B
:1050B0006B0108D54FF08062236802212046C3F8B7
:1050C000FC2308F049F8B00116D5A90114D52368CE
:1050D000D3F8002D520707D5D3F8F02322F006426B
:1050E000C3F8F0230122E2714FF000720221204642
:1050F000C3F8FC2308F040F8002E16DA002D14DA6D
:1051000023680221D3F8F023204622F00042C3F89E
:10511000F023A26842F02002A2604FF00042C3F8E0
:10512000FC230423E371FFF7FEFE700614D5690625
:1051300012D523682046D3F8F02322F04002C3F8AA
:10514000F023A26842F00202A2604022C3F8FC23CE
:1051500004232371FFF7E8FEB20614D5AB0612D57F
:1051600023682046D3F8F02322F02002C3F8F0236E
:10517000A26842F00102A2602022C3F8FC230423AB
:105180002371FFF7D1FE70BD7047704770477047BD
:105190007047704770470000B54B2DE9F041D3F8D8
:1051A00090600446B202D3F89480D3F88050D3F8CC
:1051B00084700DD5A9020BD5D3F8802022F40012FB
:1051C000C3F880204FF40012C3F80021FFF7DDFF81
:1051D000320715D52B0713D523680321D3F80035E3
:1051E000204613F0040FA24B1EBFD3F8802022F0FC
:1051F0000802C3F880200822C3F80021FFF7CAFF85
:10520000700715D5690713D523680221D3F8003537
:10521000204613F0040F964B1EBFD3F8802022F0D7
:105220000402C3F880200422C3F80021FFF7B2FF74
:10523000B20715D5AB0713D523680121D3F8003584
:10524000204613F0040F8A4B1EBFD3F8802022F0B3
:105250000202C3F880200222C3F80021FFF79AFF60
:10526000F00715D5E90713D523680021D3F80035D9
:10527000204613F0040F7E4B1EBFD3F8802022F08F
:105280000102C3F880200122C3F80021FFF782FF4A
:10529000320416D52B0414D523680321D3F8003526
:1052A000204613F0040F724B1EBFD3F8802022F467
:1052B0000042C3F880204FF40042C3F80021FFF7FA
:1052C00066FF700416D5690414D523680221D3F84B
:1052D0000035204613F0040F654B1EBFD3F8802025
:1052E00022F48042C3F880204FF48042C3F80021AA
:1052F000FFF74DFFB20416D5AB0414D52368012186
:10530000D3F80035204613F0040F594B1EBFD3F8D5
:10531000802022F40052C3F880204FF40052C3F8DA
:105320000021FFF734FFF00416D5E90414D52368F3
:105330000021D3F80035204613F0040F4C4B1EBF5C
:10534000D3F8802022F48052C3F880204FF480529A
:10535000C3F80021FFF71BFF320516D52B0514D526
:1053600023680321D3F80035204613F0040F404B87
:105370001EBFD3F8802022F40062C3F880204FF4CF
:105380000062C3F80021FFF703FF700516D5690519
:1053900014D523680221D3F80035204613F0040FFA
:1053A000334B1EBFD3F8802022F48062C3F88020E4
:1053B0004FF48062C3F80021FFF7EAFEB20516D56C
:1053C000AB0514D523680121D3F80035204613F02E
:1053D000040F274B1EBFD3F8802022F40072C3F8BD
:1053E00080204FF40072C3F80021FFF7D1FEF005D2
:1053F00016D5E90514D523680021D3F800352046D9
:1054000013F0040F1A4B1EBFD3F8802022F48072D1
:10541000C3F880204FF48072C3F80021FFF7B8FE74
:10542000320615D52B0613D523680321D3F8003592
:10543000204613F0040F0E4B1EBFD3F8802022F03D
:105440008002C3F880208022C3F80021FFF7A1FE6C
:10545000700619D5690617D523680221D3F80035DF
:10546000204613F0040F024B18BFD3F8802001E050
:10547000006000581CBF22F04002C3F88020402288
:10548000C3F80021FFF785FEB20615D5AB0613D58C
:1054900023680121D3F80035204613F0040FB94BDF
:1054A0001EBFD3F8802022F02002C3F880202022E3
:1054B000C3F80021FFF76DFEF00615D5E90613D5F8
:1054C00023680021D3F80035204613F0040FAD4BBC
:1054D0001EBFD3F8802022F01002C3F880201022D3
:1054E000C3F80021FFF755FE720013D56B0011D5EC
:1054F000A44B2046D3F8802022F08042C3F88020BD
:105500004FF08042C3F80021A36843F48073A36086
:10551000FFF70AFDB00013D5A90011D5994B20461D
:10552000D3F8802022F00052C3F880204FF00052C0
:10553000C3F80021A36843F40073A360FFF7F4FCF1
:10554000F20013D5EB0011D58E4B2046D3F8802006
:1055500022F08052C3F880204FF08052C3F800211F
:10556000A36843F48063A360FFF7DEFC300113D52A
:10557000290111D5834B2046D3F8802022F0006208
:10558000C3F880204FF00062C3F80021A36843F401
:105590000063A360FFF7C8FC720113D56B0111D53E
:1055A000784B2046D3F8802022F08062C3F8802018
:1055B0004FF08062C3F80021A36843F48053A360D6
:1055C000FFF7B2FCB00113D5A90111D56D4B2046F0
:1055D000D3F8802022F00072C3F880204FF00072D0
:1055E000C3F80021A36843F40053A360FFF79CFCB9
:1055F000F20113D5EB0111D5624B2046D3F8802080
:1056000022F08072C3F880204FF08072C3F800212E
:10561000A36843F48043A360FFF786FC18F0010FF2
:1056200014D0F80712D50121564B2046D3F880201C
:1056300022F00102C3F88020C3F80411A36843F4E8
:105640000023A36004232371FFF79EFD18F0020FCF
:1056500015D0B90713D54B4B0121D3F88020204634
:1056600022F00202C3F880200222C3F80421A368BA
:1056700043F48023A36004232371FFF785FD18F012
:10568000040F13D07A0711D53E4B0121D3F88020A7
:10569000204622F00402C3F880200422C3F804212B
:1056A000A36843F40033A360FFF76EFD18F0080F02
:1056B00013D03B0711D5334B0121D3F8802020466E
:1056C00022F00802C3F880200822C3F80421A3684E
:1056D00043F48033A360FFF757FD18F0100F13D089
:1056E000F80611D5274B0121D3F88020204622F05F
:1056F0001002C3F880201022C3F80421A36843F4E9
:105700000043A360FFF740FD18F4807F16D0F90531
:1057100014D51C4B0221D3F88020204622F480723D
:10572000C3F880204FF48072C3F80421A36843F4C7
:105730000023A36004232371FFF726FD18F4007FE4
:1057400016D0BA0514D50F4B0221D3F8802020467D
:1057500022F40072C3F880204FF40072C3F80421D1
:10576000A36843F48023A36004232371FFF70CFD97
:1057700018F4806F17D07B0515D5024B0221D3F8A2
:10578000802001E000600058204622F48062C3F8C7
:1057900080204FF48062C3F80421A36843F40033EF
:1057A000A360FFF7F1FC18F4006F14D0380512D590
:1057B0001F4B0221D3F88020204622F40062C3F858
:1057C00080204FF40062C3F80421A36843F48033BF
:1057D000A360FFF7D9FC18F4805F14D0F90412D548
:1057E000134B0221D3F88020204622F48052C3F8C4
:1057F00080204FF48052C3F80421A36843F400438F
:10580000A360FFF7C1FCF2030FD5EB030DD5084BE6
:105810002046D3F8802022F48032C3F880204FF451
:105820008032C3F80021FFF7B1FCBDE8F08100BF72
:105830000060005810B500285BD0002A59D00379C9
:10584000022B56D109BB01682B4BD1F80401034050
:10585000B3F5804F4DD0D2E90043D1F8040543EAB7
:10586000044300F0F0200343C1F80435D2E90334C7
:1058700092682343D1F8080543EA02431F4A0240D5
:105880001343C1F80835002010BD012917D1D2E912
:105890000043016843EA0443D1F8040900F0F02012
:1058A0000343C1F80439D1F80809D2E9024300F0F2
:1058B000F02243EA04431343C1F80839E3E702291D
:1058C00017D1D2E90043016843EA0443D1F8040D3B
:1058D00000F0F0200343C1F8043DD1F8080DD2E9EF
:1058E000024300F0F02243EA04431343C1F8083DA9
:1058F000C9E70120C8E700BF0040FF0000F000B08A
:1059000068B30379022B2AD179B90368154AD3F811
:1059100004110A40B2F5804F21D0D3F8082542F097
:105920000042C3F808250020704701290DD1036803
:105930000846D3F82028B2F5004F11D0D3F8082933
:1059400042F00042C3F80829EDE7022907D10268B6
:10595000D2F8083D43F00043C2F8083DE3E70120D8
:10596000704700BF0040FF00E8B141B90268D2F8BB
:10597000083523F00043C2F808350020704701299C
:1059800007D10268D2F8083923F00043C2F8083979
:10599000F3E7022907D10268D2F8083D23F000435B
:1059A000C2F8083DE9E70120704790B18AB1037958
:1059B000022B0ED101290CD1D2E900320068134329
:1059C000D0F8301821F01E021343C0F83038002000
:1059D00070470120704750B1012908D102680020AA
:1059E000D2F8303843F00103C2F830387047012054
:1059F0007047F8B10379022B1CD101290CD1D2E9EF
:105A0000003200681343D0F80C1921F01E02134332
:105A1000C0F80C390020704702290BD1D2E90032BE
:105A200000681343D0F80C1D21F01E021343C0F888
:105A30000C3DEFE701207047A0B1012908D10268B1
:105A4000D2F80C3943F00103C2F80C39002070473A
:105A5000022907D10268D2F80C3D43F00103C2F8D5
:105A60000C3DF3E701207047A0B1012908D102687D
:105A7000D2F80C3923F00103C2F80C39002070472A
:105A8000022907D10268D2F80C3D23F00103C2F8C5
:105A90000C3DF3E70120704710B5002845D0002ADF
:105AA00043D00379022B40D101291ED1D2E9044110
:105AB000036841EA0441D3F8100900F0FC200143D7
:105AC000C3F81019D2E9020141EA0041C3F81419E0
:105AD000D3F81819D2E9000201F0F02142EA00429D
:105AE0000A43C3F81829002010BD02291DD1D2E9AC
:105AF0000441036841EA0441D3F8100D00F0FC2092
:105B00000143C3F8101DD2E9020141EA0041C3F884
:105B1000141DD3F8181DD2E9000201F0F02142EA69
:105B200000420A43C3F8182DDDE70120DCE7A0B1ED
:105B3000012908D10268D2F8103943F00043C2F8B5
:105B4000103900207047022907D10268D2F8103DB1
:105B500043F00043C2F8103DF3E701207047A0B1C5
:105B6000012908D10268D2F8703943F00103C2F864
:105B7000703900207047022907D10268D2F8703DC1
:105B800043F00103C2F8703DF3E701207047A0B174
:105B9000012908D10268D2F8703923F00103C2F854
:105BA000703900207047022907D10268D2F8703D91
:105BB00023F00103C2F8703DF3E70120704701298B
:105BC00005D10368D3F8700900F00100704702297D
:105BD00003D10368D3F8700DF6E70020704700008A
:105BE00010B5C8B1C2B1012916D1D2E903431B07D0
:105BF00043EA04439468016823431468526843EA03
:105C00000453D1F8700843EA0263044A02400020BA
:105C10001343C1F8703810BD0120FCE7F9FF8888F4
:105C200050B1012908D102680020D2F8703843F041
:105C30000103C2F8703870470120704750B1012944
:105C400008D102680020D2F8703823F00103C2F8AE
:105C5000703870470120704778B101290DD1006874
:105C600043EA0233D0F8201821F4FF4222F07F02E9
:105C70001343C0F82038002070470120704750B10E
:105C8000012908D102680020D2F8203843F40043EB
:105C9000C2F8203870470120704750B1012908D15F
:105CA00002680020D2F8203823F40043C2F82038DC
:105CB00070470120704760B101290AD101680020B6
:105CC000D1F8243823F00E0343EA4202C1F8242815
:105CD00070470120704750B1012908D102680020A7
:105CE000D2F8243843F00103C2F824387047012069
:105CF000704750B1012908D102680020D2F8243839
:105D000023F00103C2F8243870470120704703686C
:105D1000D3F82408C0F342007047012903BF036889
:105D2000D3F8240800F001000020704758B152B1A8
:105D30000379022B07D103680020D3F82838C3F376
:105D40000B031360704701207047000070B50028F6
:105D500000F0A880002A00F0A580012940F0A28070
:105D600003681478D3F88008517820F0060041EADF
:105D700084010143C3F88018B2F902108CB2C1F358
:105D80000A000029B2F90410B8BF0446C1F30A059D
:105D9000002988B2B8BF2846D3F8841801F0F8214A
:105DA000214341EA0041C3F88418B2F906108DB2CC
:105DB000C1F30A000029B2F90810B8BF0546C1F3C3
:105DC000090000298CB2B8BF0446D3F888183648B9
:105DD0000140294341EA0441C3F88818B2F90C1084
:105DE0008DB2C1F30A040029B2F90A10B8BF2546E2
:105DF000C1F30A0600298CB2B8BF3446D3F88C1818
:105E000001F0F82141EA05412143C3F88C18B2F9A9
:105E10000E108DB2C1F30A040029B2F91010B8BFF8
:105E20002546C1F3090600298CB2B8BF3446D3F821
:105E300090180140294341EA0441C3F89018B2F98F
:105E400012108DB2C1F30A040029B2F91410B8BFC0
:105E50002546C1F30A0600298CB2B8BF3446D3F8F0
:105E6000941801F0F821294341EA0441C3F8941839
:105E7000B2F91610B2F91820C1F30A0500298CB244
:105E8000B8BF2C46C2F30905002A91B2D3F898286E
:105E9000B8BF294602400020224342EA0142C3F82B
:105EA000982870BD0120FCE700F800FC50B10129E2
:105EB00008D102680020D2F8803843F00103C2F80C
:105EC000803870470120704750B1012908D102681D
:105ED0000020D2F8803823F00103C2F880387047E0
:105EE0000120704710B598B192B1012910D1006816
:105EF00053781478D0F8401892781B0443EA04636E
:105F000043EA0223CAB21343C0F84038002010BD50
:105F10000120FCE750B1012908D102680020D2F825
:105F2000403843F00103C2F8403870470120704701
:105F300050B1012908D102680020D2F8403823F07E
:105F40000103C2F8403870470120704710B530B3E4
:105F50002BB3012923D1D3E900149B682143012AE3
:105F600043EA0103016809D0022A10D0D1F8582869
:105F700022F0FC021343C1F8583806E0D1F850284B
:105F800022F0FC021343C1F85038002010BDD1F8B4
:105F9000542822F0FC021343C1F85438F5E70120DD
:105FA000F4E710B5D8B1D2B1012918D1D2E9004334
:105FB000016843EA0443D1F85C0800F0F020034391
:105FC000C1F85C38D1F86008D2E9024300F0F02251
:105FD000002043EA04431343C1F8603810BD012098
:105FE000FCE7E0B101291AD1012A036808D0022A8E
:105FF0000ED0D3F8582842F00102C3F8582805E023
:10600000D3F8502842F00102C3F85028002070470E
:10601000D3F8542842F00102C3F85428F6E70120CF
:10602000704750B1012908D102680020D2F86038C9
:1060300043F00043C2F8603870470120704710B544
:10604000F0B1EAB101291BD1016853781478D1F875
:1060500044081B056FF31E5043EA04730343C1F861
:106060004438D37890781B0543EA0073107952794D
:1060700043EA0033002043EA0213C1F8483810BD58
:106080000120FCE750B1012908D102680020D2F8B4
:10609000443843F00103C2F8443870470120704788
:1060A00050B1012908D102680020D2F8443823F009
:1060B0000103C2F8443870470120704740B33AB337
